{
  "contractName": "Lyrics",
  "abi": [
    {
      "constant": true,
      "inputs": [
        {
          "name": "",
          "type": "address"
        }
      ],
      "name": "LyricPosts",
      "outputs": [
        {
          "name": "lyrics",
          "type": "string"
        },
        {
          "name": "sender",
          "type": "address"
        },
        {
          "name": "set",
          "type": "bool"
        }
      ],
      "payable": false,
      "stateMutability": "view",
      "type": "function"
    },
    {
      "constant": true,
      "inputs": [],
      "name": "getKeyArray",
      "outputs": [
        {
          "name": "",
          "type": "address[]"
        }
      ],
      "payable": false,
      "stateMutability": "view",
      "type": "function"
    }
  ],
  "bytecode": "0x608060405234801561001057600080fd5b50610360806100206000396000f30060806040526004361061004c576000357c0100000000000000000000000000000000000000000000000000000000900463ffffffff16806368aebe8a14610051578063de6cb14c1461014b575b600080fd5b34801561005d57600080fd5b50610092600480360381019080803573ffffffffffffffffffffffffffffffffffffffff1690602001909291905050506101b7565b60405180806020018473ffffffffffffffffffffffffffffffffffffffff1673ffffffffffffffffffffffffffffffffffffffff16815260200183151515158152602001828103825285818151815260200191508051906020019080838360005b8381101561010e5780820151818401526020810190506100f3565b50505050905090810190601f16801561013b5780820380516001836020036101000a031916815260200191505b5094505050505060405180910390f35b34801561015757600080fd5b506101606102a6565b6040518080602001828103825283818151815260200191508051906020019060200280838360005b838110156101a3578082015181840152602081019050610188565b505050509050019250505060405180910390f35b6000602052806000526040600020600091509050806000018054600181600116156101000203166002900480601f0160208091040260200160405190810160405280929190818152602001828054600181600116156101000203166002900480156102635780601f1061023857610100808354040283529160200191610263565b820191906000526020600020905b81548152906001019060200180831161024657829003601f168201915b5050505050908060010160009054906101000a900473ffffffffffffffffffffffffffffffffffffffff16908060010160149054906101000a900460ff16905083565b6060600180548060200260200160405190810160405280929190818152602001828054801561032a57602002820191906000526020600020905b8160009054906101000a900473ffffffffffffffffffffffffffffffffffffffff1673ffffffffffffffffffffffffffffffffffffffff16815260200190600101908083116102e0575b50505050509050905600a165627a7a723058200df0975c769658be5f447ddc17703f70b5ce3919a1c8c8c4cb58f8c04e465b770029",
  "source": "///////////////////////////////////////////////\n//=> FOR EXPERIMENTAL PURPOSES ONLY - kyle\n///////////////////////////////////////////////\n\npragma solidity ^0.4.10;\n\ncontract Lyrics {\n\n    struct LyricPost {\n        string lyrics;\n        address sender;\n        bool set;\n    }\n\n    mapping (address => LyricPost) public LyricPosts;\n\n    address[] keys;\n\n    function getKeyArray() constant returns (address[]) {\n        return keys;\n    }     \n\n}\n",
  "sourcePath": "/home/shelltr/Smackathon/Spuds/kyle/contracts/Lyrics.sol",
  "compiler": {
    "name": "solc",
    "version": "0.4.23+commit.124ca40d.Emscripten.clang"
  },
  "schemaVersion": "2.0.0",
  "updatedAt": "2018-05-21T01:01:25.953Z"
}